{
  "_format": "hh-sol-artifact-1",
  "contractName": "WavePortal",
  "sourceName": "contracts/WavePortal.sol",
  "abi": [
    {
      "inputs": [],
      "stateMutability": "payable",
      "type": "constructor"
    },
    {
      "anonymous": false,
      "inputs": [
        {
          "indexed": true,
          "internalType": "address",
          "name": "from",
          "type": "address"
        },
        {
          "indexed": false,
          "internalType": "uint256",
          "name": "createdAt",
          "type": "uint256"
        },
        {
          "indexed": false,
          "internalType": "string",
          "name": "message",
          "type": "string"
        }
      ],
      "name": "NewWave",
      "type": "event"
    },
    {
      "inputs": [],
      "name": "getAllWaves",
      "outputs": [
        {
          "components": [
            {
              "internalType": "address",
              "name": "wavedBy",
              "type": "address"
            },
            {
              "internalType": "string",
              "name": "message",
              "type": "string"
            },
            {
              "internalType": "uint256",
              "name": "createdAt",
              "type": "uint256"
            }
          ],
          "internalType": "struct WavePortal.Wave[]",
          "name": "",
          "type": "tuple[]"
        }
      ],
      "stateMutability": "view",
      "type": "function"
    },
    {
      "inputs": [],
      "name": "getTotalWaves",
      "outputs": [
        {
          "internalType": "uint256",
          "name": "count",
          "type": "uint256"
        }
      ],
      "stateMutability": "view",
      "type": "function"
    },
    {
      "inputs": [
        {
          "internalType": "address",
          "name": "_owner",
          "type": "address"
        }
      ],
      "name": "getWavesByOwner",
      "outputs": [
        {
          "components": [
            {
              "internalType": "address",
              "name": "wavedBy",
              "type": "address"
            },
            {
              "internalType": "string",
              "name": "message",
              "type": "string"
            },
            {
              "internalType": "uint256",
              "name": "createdAt",
              "type": "uint256"
            }
          ],
          "internalType": "struct WavePortal.Wave[]",
          "name": "",
          "type": "tuple[]"
        }
      ],
      "stateMutability": "view",
      "type": "function"
    },
    {
      "inputs": [
        {
          "internalType": "address",
          "name": "",
          "type": "address"
        }
      ],
      "name": "lastWavedAt",
      "outputs": [
        {
          "internalType": "uint256",
          "name": "",
          "type": "uint256"
        }
      ],
      "stateMutability": "view",
      "type": "function"
    },
    {
      "inputs": [
        {
          "internalType": "string",
          "name": "_message",
          "type": "string"
        }
      ],
      "name": "wave",
      "outputs": [],
      "stateMutability": "nonpayable",
      "type": "function"
    }
  ],
  "bytecode": "0x60806040526200003360405180606001604052806025815260200162001873602591396200005b60201b620009e91760201c565b60644442620000439190620001a8565b6200004f919062000245565b600381905550620002ec565b620000fb8160405160240162000072919062000168565b6040516020818303038152906040527f41304fac000000000000000000000000000000000000000000000000000000007bffffffffffffffffffffffffffffffffffffffffffffffffffffffff19166020820180517bffffffffffffffffffffffffffffffffffffffffffffffffffffffff8381831617835250505050620000fe60201b60201c565b50565b60008151905060006a636f6e736f6c652e6c6f679050602083016000808483855afa5050505050565b600062000134826200018c565b62000140818562000197565b9350620001528185602086016200020f565b6200015d81620002db565b840191505092915050565b6000602082019050818103600083015262000184818462000127565b905092915050565b600081519050919050565b600082825260208201905092915050565b6000620001b58262000205565b9150620001c28362000205565b9250827fffffffffffffffffffffffffffffffffffffffffffffffffffffffffffffffff03821115620001fa57620001f96200027d565b5b828201905092915050565b6000819050919050565b60005b838110156200022f57808201518184015260208101905062000212565b838111156200023f576000848401525b50505050565b6000620002528262000205565b91506200025f8362000205565b925082620002725762000271620002ac565b5b828206905092915050565b7f4e487b7100000000000000000000000000000000000000000000000000000000600052601160045260246000fd5b7f4e487b7100000000000000000000000000000000000000000000000000000000600052601260045260246000fd5b6000601f19601f8301169050919050565b61157780620002fc6000396000f3fe608060405234801561001057600080fd5b50600436106100575760003560e01c8063449d46c01461005c5780639a2cdc0814610078578063a42a466314610096578063bd43a908146100c6578063e75f6c42146100e4575b600080fd5b61007660048036038101906100719190610d63565b610114565b005b61008061050a565b60405161008d91906110d0565b60405180910390f35b6100b060048036038101906100ab9190610d3a565b61055b565b6040516100bd91906110d0565b60405180910390f35b6100ce610573565b6040516100db9190610fcc565b60405180910390f35b6100fe60048036038101906100f99190610d3a565b6106c4565b60405161010b9190610fcc565b60405180910390f35b42603c600260003373ffffffffffffffffffffffffffffffffffffffff1673ffffffffffffffffffffffffffffffffffffffff1681526020019081526020016000205461016191906111e2565b106101a1576040517f08c379a000000000000000000000000000000000000000000000000000000000815260040161019890611070565b60405180910390fd5b42600260003373ffffffffffffffffffffffffffffffffffffffff1673ffffffffffffffffffffffffffffffffffffffff16815260200190815260200160002081905550600060405180606001604052803373ffffffffffffffffffffffffffffffffffffffff16815260200183815260200142815250908060018154018082558091505060019003906000526020600020906003020160009091909190915060008201518160000160006101000a81548173ffffffffffffffffffffffffffffffffffffffff021916908373ffffffffffffffffffffffffffffffffffffffff16021790555060208201518160010190805190602001906102a4929190610be3565b5060408201518160020155505060018060003373ffffffffffffffffffffffffffffffffffffffff1673ffffffffffffffffffffffffffffffffffffffff168152602001908152602001600020600082825461030091906111e2565b925050819055506103466040518060400160405280600d81526020017f257320686173207761766564210000000000000000000000000000000000000081525033610a82565b6064600354424461035791906111e2565b61036191906111e2565b61036b9190611362565b6003819055506032600354116104b7576103ba6040518060400160405280600781526020017f257320776f6e210000000000000000000000000000000000000000000000000081525033610a82565b6000655af3107a4000905047811115610408576040517f08c379a00000000000000000000000000000000000000000000000000000000081526004016103ff90611090565b60405180910390fd5b60003373ffffffffffffffffffffffffffffffffffffffff168260405161042e90610fb7565b60006040518083038185875af1925050503d806000811461046b576040519150601f19603f3d011682016040523d82523d6000602084013e610470565b606091505b50509050806104b4576040517f08c379a00000000000000000000000000000000000000000000000000000000081526004016104ab906110b0565b60405180910390fd5b50505b3373ffffffffffffffffffffffffffffffffffffffff167f5f7e16dc676677766a70e9c5628aa6c54ddb8b6e5188e2ae1e1f17f1ffbea71642836040516104ff9291906110eb565b60405180910390a250565b60006105506040518060400160405280601781526020017f5765206861766520256420746f74616c20776176657321000000000000000000815250600080549050610b1e565b600080549050905090565b60026020528060005260406000206000915090505481565b60606000805480602002602001604051908101604052809291908181526020016000905b828210156106bb57838290600052602060002090600302016040518060600160405290816000820160009054906101000a900473ffffffffffffffffffffffffffffffffffffffff1673ffffffffffffffffffffffffffffffffffffffff1673ffffffffffffffffffffffffffffffffffffffff168152602001600182018054610620906112b6565b80601f016020809104026020016040519081016040528092919081815260200182805461064c906112b6565b80156106995780601f1061066e57610100808354040283529160200191610699565b820191906000526020600020905b81548152906001019060200180831161067c57829003601f168201915b5050505050815260200160028201548152505081526020019060010190610597565b50505050905090565b60606000600160008473ffffffffffffffffffffffffffffffffffffffff1673ffffffffffffffffffffffffffffffffffffffff1681526020019081526020016000205467ffffffffffffffff811115610747577f4e487b7100000000000000000000000000000000000000000000000000000000600052604160045260246000fd5b60405190808252806020026020018201604052801561078057816020015b61076d610c69565b8152602001906001900390816107655790505b5090506000805b6000805490508110156109de578473ffffffffffffffffffffffffffffffffffffffff16600082815481106107e5577f4e487b7100000000000000000000000000000000000000000000000000000000600052603260045260246000fd5b906000526020600020906003020160000160009054906101000a900473ffffffffffffffffffffffffffffffffffffffff1673ffffffffffffffffffffffffffffffffffffffff1614156109cb576000818154811061086d577f4e487b7100000000000000000000000000000000000000000000000000000000600052603260045260246000fd5b90600052602060002090600302016040518060600160405290816000820160009054906101000a900473ffffffffffffffffffffffffffffffffffffffff1673ffffffffffffffffffffffffffffffffffffffff1673ffffffffffffffffffffffffffffffffffffffff1681526020016001820180546108ec906112b6565b80601f0160208091040260200160405190810160405280929190818152602001828054610918906112b6565b80156109655780601f1061093a57610100808354040283529160200191610965565b820191906000526020600020905b81548152906001019060200180831161094857829003601f168201915b505050505081526020016002820154815250508383815181106109b1577f4e487b7100000000000000000000000000000000000000000000000000000000600052603260045260246000fd5b602002602001018190525081806109c790611319565b9250505b80806109d690611319565b915050610787565b508192505050919050565b610a7f816040516024016109fd9190610fee565b6040516020818303038152906040527f41304fac000000000000000000000000000000000000000000000000000000007bffffffffffffffffffffffffffffffffffffffffffffffffffffffff19166020820180517bffffffffffffffffffffffffffffffffffffffffffffffffffffffff8381831617835250505050610bba565b50565b610b1a8282604051602401610a98929190611010565b6040516020818303038152906040527f319af333000000000000000000000000000000000000000000000000000000007bffffffffffffffffffffffffffffffffffffffffffffffffffffffff19166020820180517bffffffffffffffffffffffffffffffffffffffffffffffffffffffff8381831617835250505050610bba565b5050565b610bb68282604051602401610b34929190611040565b6040516020818303038152906040527f9710a9d0000000000000000000000000000000000000000000000000000000007bffffffffffffffffffffffffffffffffffffffffffffffffffffffff19166020820180517bffffffffffffffffffffffffffffffffffffffffffffffffffffffff8381831617835250505050610bba565b5050565b60008151905060006a636f6e736f6c652e6c6f679050602083016000808483855afa5050505050565b828054610bef906112b6565b90600052602060002090601f016020900481019282610c115760008555610c58565b82601f10610c2a57805160ff1916838001178555610c58565b82800160010185558215610c58579182015b82811115610c57578251825591602001919060010190610c3c565b5b509050610c659190610ca0565b5090565b6040518060600160405280600073ffffffffffffffffffffffffffffffffffffffff16815260200160608152602001600081525090565b5b80821115610cb9576000816000905550600101610ca1565b5090565b6000610cd0610ccb84611140565b61111b565b905082815260208101848484011115610ce857600080fd5b610cf3848285611274565b509392505050565b600081359050610d0a8161152a565b92915050565b600082601f830112610d2157600080fd5b8135610d31848260208601610cbd565b91505092915050565b600060208284031215610d4c57600080fd5b6000610d5a84828501610cfb565b91505092915050565b600060208284031215610d7557600080fd5b600082013567ffffffffffffffff811115610d8f57600080fd5b610d9b84828501610d10565b91505092915050565b6000610db08383610f49565b905092915050565b610dc181611238565b82525050565b610dd081611238565b82525050565b6000610de182611181565b610deb81856111a4565b935083602082028501610dfd85611171565b8060005b85811015610e395784840389528151610e1a8582610da4565b9450610e2583611197565b925060208a01995050600181019050610e01565b50829750879550505050505092915050565b6000610e568261118c565b610e6081856111c0565b9350610e70818560208601611283565b610e798161144f565b840191505092915050565b6000610e8f8261118c565b610e9981856111d1565b9350610ea9818560208601611283565b610eb28161144f565b840191505092915050565b6000610eca6007836111d1565b9150610ed582611460565b602082019050919050565b6000610eed6034836111d1565b9150610ef882611489565b604082019050919050565b6000610f106027836111d1565b9150610f1b826114d8565b604082019050919050565b6000610f336000836111b5565b9150610f3e82611527565b600082019050919050565b6000606083016000830151610f616000860182610db8565b5060208301518482036020860152610f798282610e4b565b9150506040830151610f8e6040860182610f99565b508091505092915050565b610fa28161126a565b82525050565b610fb18161126a565b82525050565b6000610fc282610f26565b9150819050919050565b60006020820190508181036000830152610fe68184610dd6565b905092915050565b600060208201905081810360008301526110088184610e84565b905092915050565b6000604082019050818103600083015261102a8185610e84565b90506110396020830184610dc7565b9392505050565b6000604082019050818103600083015261105a8185610e84565b90506110696020830184610fa8565b9392505050565b6000602082019050818103600083015261108981610ebd565b9050919050565b600060208201905081810360008301526110a981610ee0565b9050919050565b600060208201905081810360008301526110c981610f03565b9050919050565b60006020820190506110e56000830184610fa8565b92915050565b60006040820190506111006000830185610fa8565b81810360208301526111128184610e84565b90509392505050565b6000611125611136565b905061113182826112e8565b919050565b6000604051905090565b600067ffffffffffffffff82111561115b5761115a611420565b5b6111648261144f565b9050602081019050919050565b6000819050602082019050919050565b600081519050919050565b600081519050919050565b6000602082019050919050565b600082825260208201905092915050565b600081905092915050565b600082825260208201905092915050565b600082825260208201905092915050565b60006111ed8261126a565b91506111f88361126a565b9250827fffffffffffffffffffffffffffffffffffffffffffffffffffffffffffffffff0382111561122d5761122c611393565b5b828201905092915050565b60006112438261124a565b9050919050565b600073ffffffffffffffffffffffffffffffffffffffff82169050919050565b6000819050919050565b82818337600083830152505050565b60005b838110156112a1578082015181840152602081019050611286565b838111156112b0576000848401525b50505050565b600060028204905060018216806112ce57607f821691505b602082108114156112e2576112e16113f1565b5b50919050565b6112f18261144f565b810181811067ffffffffffffffff821117156113105761130f611420565b5b80604052505050565b60006113248261126a565b91507fffffffffffffffffffffffffffffffffffffffffffffffffffffffffffffffff82141561135757611356611393565b5b600182019050919050565b600061136d8261126a565b91506113788361126a565b925082611388576113876113c2565b5b828206905092915050565b7f4e487b7100000000000000000000000000000000000000000000000000000000600052601160045260246000fd5b7f4e487b7100000000000000000000000000000000000000000000000000000000600052601260045260246000fd5b7f4e487b7100000000000000000000000000000000000000000000000000000000600052602260045260246000fd5b7f4e487b7100000000000000000000000000000000000000000000000000000000600052604160045260246000fd5b6000601f19601f8301169050919050565b7f5761697420316d00000000000000000000000000000000000000000000000000600082015250565b7f547279696e6720746f207769746864726177206d6f7265206d6f6e657920746860008201527f616e2074686520636f6e7472616374206861732e000000000000000000000000602082015250565b7f4661696c656420746f207769746864726177206d6f6e65792066726f6d20636f60008201527f6e74726163742e00000000000000000000000000000000000000000000000000602082015250565b50565b61153381611238565b811461153e57600080fd5b5056fea2646970667358221220acc420547d22f4118f89ef0ede00134e844e121c674c2c162ea2b13d2b5c22fe64736f6c63430008040033596f20796f2c204920616d206120636f6e747261637420616e64204920616d20736d617274",
  "linkReferences": {},
  "deployedLinkReferences": {}
}